:020000040800F2
:1000000088B60020D5040008DD030008DF030008DF
:10001000E5030008ED030008F503000800000000F8
:10002000000000000000000000000000FF030008C6
:10003000FD0300080000000001040008030400089C
:100040000504000807040008090400080B04000860
:100050000D0400080F040008110400081304000830
:1000600017040008190400081B0400081D040008F8
:1000700021040008230400082504000827040008C0
:10008000290400082B0400082D040008310400088E
:100090003304000835040008370400083904000858
:1000A0003B0400083D0400083F0400084104000828
:1000B0004304000847040008490400084B040008F2
:1000C0004D0400084F0400085104000853040008C0
:1000D00055040008570400085B0400085F0400088A
:1000E000610400086F040008730400087504000828
:1000F00077040008790400087B0400087D040008E8
:100100007F040008810400088304000885040008B7
:1001100087040008890400088B0400088D04000887
:100120008F04000891040008930400089504000857
:10013000DFF80CD01AF00EFA00480047D5D60008B8
:1001400088B600207047000008B529208DF800000F
:1001500003208DF8010000208DF8020001208DF8A9
:100160000300684617F0DBF808BD10B5002140F227
:10017000544018F0DFF90021032018F0DBF90121C9
:10018000084618F0D7F900214FF4807018F0D2F922
:1001900000214FF6FD7018F0D6F9012144F2FD3030
:1001A00018F0D1F90021894818F0D6F9BDE81040BF
:1001B0000121874818F0D0B910B54FF4803018F0FD
:1001C000CEF818F0F9F818F0F7F818F0F5F801285B
:1001D0000DD118F01AF9392018F0D9F80028FAD002
:1001E000022018F015F918F01AF90828FBD110BDF3
:1001F00010B50121084618F060F8BDE81040DBE7B3
:1002000010B50DF01FFE13F030F8BDE8104019F0E6
:10021000CDBA0121062017F040BB10B500F039F827
:10022000BDE81040F5E710B5FFF79FFF13F07FFB27
:1002300019F0A6FA14F01AFE13F0F3F94FF4164170
:10024000012014F01EFD4FF41651022014F019FD88
:1002500014F0F3F812F00BFD13F064FA13F06FFFD3
:1002600019F0ACFA19F0ECFA16F05DF9BDE810409F
:1002700000F048B810B5FFF7D0FF13F0CDFABDE895
:100280001040D0E710B5534818F012F951484068B3
:1002900010BD10B518F04AF84FF48034204618F01D
:1002A0005EF818F089F84C490128087024D1102014
:1002B00017F066FC022017F053FC002018F0B4F889
:1002C000002018F0BFF8A01118F0B5F8A01018F031
:1002D000CEF82101204618F090F8012018F095F88A
:1002E000392018F054F80028FAD0022018F090F8BD
:1002F00018F095F80828FBD10121BDE810401C201A
:1003000018F021B9F8B500214FF0006017F036F869
:100310004FF4A06016F0FEFF25208DF800000326A4
:100320008DF8016001248DF802408DF80340684685
:1003300016F0F5FF26208DF8000002278DF80170D9
:100340008DF802408DF80340684616F0E8FF1C2047
:100350008DF8000000258DF801508DF802408DF8D1
:100360000340684616F0DBFF0B208DF800008DF887
:1003700001608DF802608DF80340684616F0CFFFEB
:1003800007208DF800008DF801708DF802508DF86F
:100390000340684616F0C3FF29208DF800008DF851
:1003A00001408DF802508DF80340684616F0B7FF03
:1003B00028208DF800008DF801508DF802508DF83E
:1003C0000340684616F0ABFFF8BD00003FC8FE3A98
:1003D00001402228F8040020000000207047FFF7A9
:1003E000B1FEFCE72CA016F03DFFFBE72FA016F0B6
:1003F00039FFFBE732A016F035FFFBE77047704787
:100400007047704770477047704770477047704734
:10041000704713F015B870477047704712F0E1BE8F
:1004200070477047704770477047704712F0EEBED4
:100430007047704770477047704770477047704704
:10044000704714F056B87047704770477047704750
:1004500070477047704714F042BB12F0BDBF704741
:1004600010B515F0FDFBBDE8104015F049BC13F0C8
:10047000BBBA704770477047704770477047704706
:1004800070477047704770477047704770477047B4
:1004900070477047704700004D656D4D616E616734
:1004A00065457863657074696F6E000042757346C8
:1004B00061756C74457863657074696F6E000000D7
:1004C00055736167654661756C74457863657074D2
:1004D000696F6E00004800473101000870B50246A0
:1004E0003148324CC514831459B10F2A5AD2DFE86F
:1004F00002F02C2E3032344259594D4F5959595926
:1005000054000F2A4ED2DFE802F0080A0C0E101534
:100510004D4D1A1C4D4D4D4D1E0001213EE0022156
:100520003CE004213AE0082138E02946204617F053
:100530001AFE16E013F036F80121204629E040218A
:1005400027E080212AE0194623E0012121E0022151
:100550001FE004211DE008211BE02946204617F07A
:1005600000FE2946204617F0FEFD0A200AF003FF90
:100570002946204612E00121204617F0F2FD012015
:100580000AF0F9FEBDE8704013F008B8402105E01C
:100590008021BDE8704017F0E6BD1946BDE8704007
:1005A00017F0DFBD70BD704700100140000801402A
:1005B000F0B50B46FF498BB014460D5C1631085C54
:1005C000824232D88CB36E462E2D0FD301278DF880
:1005D0000040002105E0585CF0557F1C491CFFB22B
:1005E000C9B2A142F7D3611C30462DE00A220AA904
:1005F000184619F06AFA0A990978B1B91E2D06D37E
:10060000032C12D8FF2810D801273C4612E0112DE8
:1006100007D3052C09D8B0F5803F06D202273C4607
:1006200008E0022D06D30A2C02D900200BB0F0BD41
:1006300004273C46002103E07054000A491CC9B25B
:10064000B942F9D3214668460AF040FEF0557F1CB6
:10065000FFB2002407E02819C1B23019012212F0BC
:10066000C5FB641CE4B2BC42F5D30120DEE770B5E3
:100670000446D0480E461630CE49055D16382C315A
:10068000005D51F824302E2816D3A4F10F00032862
:1006900002D3C01E032805D2C7A32A46CAA13046EA
:1006A0001AF06CF9152C05D1C3A32A46C6A1304611
:1006B0001AF064F9284670BD2A46C4A1F7E72DE96F
:1006C000F043BC4A81460F4602F1160312F80910A6
:1006D0008BB013F8094001220DF104082E293CD3F8
:1006E000481CC5B2684612F0DEFB9DF80000A0422F
:1006F00066D8002864D001248DF8040000260BE0A1
:1007000008EB04002946641C6D1CE4B2EDB2012222
:1007100012F0C9FB761CF6B29DF80000401C864220
:10072000EED39DF8001001A8491C0AF0CFFD08EB9C
:100730000402414612F8012C824241D1002004E01B
:100740000A1852783A54401CC0B29DF800209042DA
:10075000F6D3D1B20020785438E01E2901D300200E
:1007600008E0112902D30020022203E0022903D36A
:10077000002004228DF800209DF800204044521CE7
:1007800012F091FB9DF8001001A80AF09FFD9DF862
:10079000001018F80120824212D10023184607E009
:1007A0001A020B1A434413F8013C1343401CC0B215
:1007B0008842F5D3224687A138461AF0DFF805E0D3
:1007C00039464846FFF753FF8DF800009DF80000BA
:1007D0000BB0BDE8F0830F310346C8B20C221946B6
:1007E000E6E612310346C8B20C221946E0E670B5BF
:1007F0008AB06946002012F017F8684619F0ABF984
:10080000764C206098B96946022012F00DF82068F5
:1008100000287DD0684619F025F9C5B2684619F060
:100820009AF920602A466946002011F01AFF6946AD
:10083000132011F0F9FF694869A10C30054619F041
:100840002CF9684619F00EF902466946284619F057
:10085000FDF86946052011F0E7FF684619F07BF9BD
:100860006084694606202B3411F0DEFF684619F0DB
:1008700072F924F8070C6946082011F0D5FF684684
:1008800019F069F904F8050C6946092011F0CCFF4C
:10089000684619F060F904F8040C69460F2011F05D
:1008A000C3FF684619F057F904F8030C69460B209A
:1008B00011F0BAFF684619F04EF9607069460720DA
:1008C00011F0B2FF684619F046F9A070694603209E
:1008D000FFF7F5FE684619F03EF9E0706946112011
:1008E00011F0A2FF3D483EA12F30054619F0D5F882
:1008F000684619F0B7F802466946284619F0A6F886
:1009000069460720FFF7DBFE684619F024F900E08E
:10091000BBE0607669460B20FFF7D1FE684619F010
:100920001AF9A07669460C20FFF7C9FE684619F04F
:1009300012F9E07669460D20FFF7C1FE684619F00E
:100940000AF9207769460820FFF7B9FE684619F0D2
:1009500002F9607769460920FFF7B1FE684619F091
:10096000FAF8A07769460A2011F05EFF684619F090
:10097000F2F8E077694612202B3C11F055FF17483A
:100980006A461DA14B3019F0F9FF69460C2011F0A1
:100990004BFF684619F0DFF8184D80B22026A8807A
:1009A0001038212800D3AE80A8881021C0EB001099
:1009B00026E0000004000020303030303030323487
:1009C0003630363000000000252A730025302A6CAE
:1009D0006400000025302A6C750000000C810020A6
:1009E0004040404040404040404040404040404007
:1009F000404040400000000025730000D4800020EB
:100A000001EB40004009E88069460D2011F00CFF21
:100A1000684619F0A0F880B228801038212800D349
:100A20002E802888203800EB4001C1EBC010E86020
:100A300069460E2011F0F8FE684619F08CF880B275
:100A400028821F2801D30A20288280B20A38C0EBEE
:100A5000001068826946102011F0E6FE684619F021
:100A60007AF8C0B201262875022800D32E7569468F
:100A7000042011F0D9FE684619F06DF8A86118F04D
:100A8000ADFF84F85B600AB070BD01482060CEE61F
:100A9000FFC99A3B20B1012804D1002013F038BBD4
:100AA0000120FBE770470000164800214BF680321A
:100AB00041704180828081717047F5E7114840881C
:100AC00070474BF68031884201D3481E01E000B9DF
:100AD00001200C4A52881044884202D3A0F53B40C2
:100AE000803870470749487801280AD100224A70A7
:100AF00048884BF68033401C80B24880984200D32F
:100B00004A80704788000020F9490020A1F8B40409
:100B1000A1F8B60401F59761A1F8B404A1F8B604F0
:100B200001F59761A1F88A04A1F88C04704710B50B
:100B3000F04800F03DFDBDE81040EF4800F038BD42
:100B400070B50D46044600F047FD08B1002070BDA9
:100B500094F80A0501218140CA4305F00101814052
:100B6000B4F80205235C13400B43235494F80A05A0
:100B7000401CC0B284F80A0508280DD3002084F870
:100B80000A05B4F8020540F20151401CB0FBF1F235
:100B900001FB1200A4F80205012070BD18B1012864
:100BA00003D000207047D34800E0D348C8E7F0B531
:100BB000B0F80245B0F8043590F80B259C4205D1F9
:100BC00090F80A45944201D10020F0BD012606FAB2
:100BD00002F4C55C521C2C40D2B2002580F80B25D3
:100BE000082A0AD340F201525B1CB3FBF2F702FB66
:100BF000173280F80B55A0F8042514B10E700120AF
:100C0000F0BD0D70FBE718B1012803D0002070473C
:100C1000B84800E0B848CAE72DE9F05F00268B46E7
:100C2000814690F80D35B0F8082590F80C1535463A
:100C300037463446B0F8060500F0ECFC082802D32D
:100C4000083880B200E0002099F80C15B9F80625A4
:100C5000083102EBD10240F2015EB2FBFEF38246A4
:100C600001F007000EFB132200212CE0082805D319
:100C70000020521CB2FBFEFC0EFB1C22012319F8C3
:100C800002C003FA00F81CEA080F09D0052D27D28C
:100C9000A3403B43641C6D1CDFB2E4B2EDB204E040
:100CA000052D01D2641CE4B20025082C07D30024D2
:100CB000A02E15D2761CB6B20BF806700027491C80
:100CC000401C89B280B25145D0D34CB9032E07D312
:100CD0008BF80060484600F090FC0120BDE8F09FD2
:100CE000484600F08AFC0020F8E730B5B0F8B4249C
:100CF00007241346521CB2FBF4F504FB1522B0F88E
:100D0000B654AA4201D1002030BD2B22534300EB40
:100D10008303B1F8A220A3F8A220002203E08D5C97
:100D20009D54521C92B2B1F8A2509542F7D891F856
:100D3000AA2083F8AA2051F8A42F43F8A42F898869
:100D40009980B0F8B414491CB1FBF4F204FB121101
:100D5000A0F8B414012030BD01466548C5E701463E
:100D60006648C2E730B5664A0725B2F88A140B46D2
:100D7000491CB1FBF5F405FB1411B2F88C44A142F7
:100D800001D1002030BD53214B4302EB430300212E
:100D900003E0445C5C54491C89B20478E41C8C4236
:100DA000F7D890F8A41083F8A410B0F8A200A3F824
:100DB000A200B2F88A04401CB0FBF5F105FB11005B
:100DC000A2F88A04012030BD10B5B0F8B434B0F8F0
:100DD000B624934201D1002010BD2B235A4300EBCF
:100DE0008203B3F8A220A1F8A220002203E09C5CB9
:100DF0008C54521C92B2B3F8A2409442F7D893F8A4
:100E0000AA2081F8AA2053F8A42F41F8A42F9A8889
:100E10008A80B0F8B6140722491CB1FBF2F302FB3A
:100E20001311A0F8B614012010BD01463048CBE7DD
:100E300001463248C8E7324B10B5B3F88A24B3F8FC
:100E40008C148A4201D1002010BD5322514303EB80
:100E50004102002103E0545C4454491C89B21478D7
:100E6000E41C8C42F7D892F8A41080F8A410B2F8D1
:100E7000A210A0F8A210B3F88C040721401CB0FB0C
:100E8000F1F201FB1200A3F88C04012010BD2DE942
:100E9000F047044690F80E0589464FF0010830B13E
:100EA000012820460CD0BDE8F04700F081BB204669
:100EB00000F0C3FB012801D184F80E85BDE8F0875E
:100EC00000F08AFB002601281CD0204600F0FCFB25
:100ED0000128F3D1A1201AF0F5FE0746A12118F050
:100EE0009EFD39462046FFF797FE012832D062E08A
:100EF0002C0F00200C0500201C0A0020E413002009
:100F00009C18002094F80A0506280DD5801C84F84A
:100F10000B05B4F80205012802D500F5A06000E039
:100F2000401EA4F8040506E0801F84F80B05B4F801
:100F30000215A4F80415B4F80415A4F80615A4F8CD
:100F4000081594F80B1584F80C1584F80D1584F821
:100F50000E65B3E7AC201AF0B5FE0546AC2118F0DB
:100F60005EFD13F0DFFC40F6CA0190FBF1F2C5F81C
:100F7000A42090FBF1F201FB1200A5F8A80038783C
:100F8000A5F8A200002004E0391849782954401C33
:100F900080B239788142F7D8FA48844202D185F884
:100FA000AA6001E085F8AA8029464846FFF79DFE21
:100FB00028461AF05FFE38461AF05CFE84F80E658B
:100FC0007CE710B5F049EF48FFF761FFEF49BDE856
:100FD0001040A1F6C8105AE72DE9F0410D4607462A
:100FE00090F80080A221284618F019FD022408F18B
:100FF000020603E0385D2855641CA4B2B442F9D35C
:101000004146A81C0AF080F9010A2955641CA1B2C6
:1010100068542E7000206870BDE8F0812DE9F0471B
:101020000F468146002490F8008090F801A0022528
:101030002646A221384618F0F2FC02214FF0010C9E
:1010400008F1020823E019F801300CFA00F213420B
:101050000FD00CFA04F37A5D641C1A43E4B27A559B
:10106000082C02D300246D1CADB2761CF6B2052EFE
:1010700007D3641C0026E4B2082C02D300246D1CA4
:10108000ADB2401CC0B20828DDD3491C89B241452D
:101090004FF00000D7D320E019F801300CFA00F827
:1010A00013EA080F0FD00CFA04F27B5D641C1343A3
:1010B000E4B27B55082C02D300246D1CADB2761C23
:1010C000F6B2052E07D3641C0026E4B2082C02D326
:1010D00000246D1CADB2401CC0B25045DCD3AD1E27
:1010E0003D707C70EAE62DE9F0470F46814600240A
:1010F00090F8008090F801A002252646A2213846EB
:1011000018F08DFC02214FF0010C08F1020824E0D8
:1011100019F801300CFA00F213420ED00CFA04F365
:101120007A5D641C1A43E4B27A55082C02D3002479
:101130006D1CADB2761CF6B209E0052E06D2641C19
:10114000E4B2082C02D300246D1CADB20026401C72
:10115000C0B20828DCD3491C89B241454FF00000D9
:10116000D6D321E019F801300CFA00F813EA080F81
:101170000ED00CFA04F27B5D641C1343E4B27B5581
:10118000082C02D300246D1CADB2761CF6B209E027
:10119000052E06D2641CE4B2082C02D300246D1C78
:1011A000ADB20026401CC0B25045DBD3AD1E3D7031
:1011B0007C7083E62DE9F0410D46064690F80080EC
:1011C00047780024A221284618F029FCAA20A870FC
:1011D000E87028717E2068710620022108F1020261
:1011E00005E0735C2B54401C491C80B289B29142CB
:1011F000F7D300224FF0010815E016F801C008FAF5
:1012000002F31CEA030F05D02B5C08FA04FC43EA46
:101210000C032B54641CE4B2082C02D30024401CA1
:1012200080B2521CD2B2BA42E7D3002108FA01F3CD
:1012300013F07E0F04D02B5C08FA04F213432B54F6
:10124000641CE4B2082C02D30024401C80B2491C68
:1012500089B20829EAD3801E28706C70DCE62DE97B
:10126000F0410D46064690F8008047780024A22100
:10127000284618F0D4FBCC20A870E8702871812093
:1012800068710620022108F1020205E0735C2B540C
:10129000401C491C80B289B29142F7D300224FF022
:1012A000010815E016F801C008FA02F31CEA030F62
:1012B00005D02B5C08FA04FC43EA0C032B54641C95
:1012C000E4B2082C02D30024401C80B2521CD2B2DB
:1012D000BA42E7D334B1295C621E08FA02F2114027
:1012E00008D006E0291811F8011C090601D40021D4
:1012F00000E00121002208FA02F313F07E0F06D06D
:10130000D9B92E5C08FA04F39E432E5406E0A1B12D
:101310002B5C08FA04F18B432B540021641CE4B2CB
:10132000082C02D30024401C80B2521CD2B2082ADE
:10133000E1D3801E28706C706EE6295C08FA04F315
:10134000194329540121E9E72DE9F0470E460746E4
:1013500090F8008090F8019002240025A2213046E8
:1013600018F05DFB062008F1010105E03A5C3255FA
:10137000641C401CA4B280B28842F7D300214FF015
:10138000010C19E00C0500202C0F0020E4130020B4
:101390003B5C0CFA01F813EA080F04D0335D0CFA39
:1013A00005F2134333556D1CEDB2082D02D3002511
:1013B000641CA4B2491CC9B24945E9D3A41E3470C7
:1013C00075707BE52DE9F04190F8008047781500B5
:1013D0000C46064600D00125A221204618F01FFB2E
:1013E00002204FF0010C08F1020814E0335C0CFA03
:1013F00002F10B4204D09DB9235C8B43235404E0DB
:1014000075B1235C8B4323540025521CD2B2082AA9
:10141000ECD3401C80B240454FF00002E6D315E00B
:10142000235C0B4323540125EFE7335C0CFA02F1F4
:101430000B4204D08DB9235C8B43235404E065B187
:10144000235C8B4323540025521CD2B2BA42ECD306
:101450003078207070786070DEE5235C0B43235495
:101460000125F1E72DE9F047077890F80190150084
:101470000C46064600D00125A221204618F0CFFADE
:1014800002204FF0010CBF1C16E0325C0CFA01F395
:1014900002EA03088D40A84522FA01F202F0010594
:1014A000225C01D11A4300E09A43491CC9B222547C
:1014B0000829EAD3401C80B2B8424FF00001E4D3BF
:1014C00012E0325C0CFA01F302EA03078D40AF42EE
:1014D00022FA01F202F00105225C01D11A4300E078
:1014E0009A43491C2254C9B24945EAD33078207046
:1014F00070786070E2E470B506460D46A2201AF0DE
:10150000E1FB0446A22118F08AFA21463046FFF793
:1015100063FD29462046FFF781FD21462846FFF757
:1015200049FE012229462046FFF74CFF2046BDE830
:1015300070401AF09FBB70B506460D46A2201AF007
:10154000C1FB0446A22118F06AFA29463046FFF78B
:1015500043FD21462846FFF761FD29462046FFF757
:101560007EFE2046BDE870401AF084BB70B506468A
:101570000D46A2201AF0A6FB0446A22118F04FFA4D
:1015800029463046FFF728FD21462846FFF746FD4D
:1015900029462046FFF70EFE2046BDE870401AF0AF
:1015A00069BB10B5FFF7B0FABDE81040FFF7BFBA4E
:1015B0000021A0F80215A0F80415A0F80615A0F85F
:1015C000081580F80A1580F80B1580F80C1580F8BE
:1015D0000D1580F80E157047B0F8021540F2015253
:1015E000491CB1FBF2F302FB1311B0F80405814270
:1015F00001D10120704700207047B0F80815A0F80D
:10160000041590F80D2580F80B25A0F8061580F834
:101610000C257047101A10B540F2015200F201502B
:1016200090FBF2F402FB140003EBC000401A00B27E
:10163000002800DA002080B210BDF8B5044640F260
:10164000015523E00022B4F8040594F80B15134665
:101650000126082905D30021401CB0FBF5F705FB46
:1016600017005206120E275C06FA01FC17EA0C0F4F
:1016700001D042F00102491C5B1C89B2082BE8D35F
:101680007E2A0AD069462046FFF791FA204600F0EC
:101690006AF80828D6D20020F8BDB4F80415A4F8DA
:1016A000061594F80B0584F80C05083000F00702C5
:1016B00001EBD000B0FBF5F105FB110084F80D251E
:1016C000A4F808050120F8BD2DE9F047044600F014
:1016D0004AF840F20155102841D334E0B4F8082507
:1016E00094F80D050021904684460B464FF0010901
:1016F000082805D30020521CB2FBF5F605FB162284
:101700004906090EA75C09FA00F6374201D041F0FC
:101710000101401C5B1C80B2082BE9D37E2920D03C
:101720000CF1010C0CF0FF0084F80D0508280AD319
:10173000002084F80D0508F10108B8FBF5F005FB61
:101740001080A4F8080594F80A35B4F8022594F836
:101750000D15B4F80805FFF75DFF0828BED200207C
:101760002EE401202CE490F80A35B0F8022590F818
:101770000B15B0F804054DE7FD490020A1F8B404AD
:10178000A1F8B60401F59761A1F8B404A1F8B60474
:1017900001F59761A1F89804A1F89A047047EBE766
:1017A00030B5B0F8B42407241346521CB2FBF4F54C
:1017B00004FB1522B0F8B654AA4201D1002030BD76
:1017C0002B22534300EB8303B1F8A220A3F8A220FD
:1017D000002203E08D5C9D54521C92B2B1F8A250DD
:1017E0009542F7D891F8AA2083F8AA2051F8A42F9F
:1017F00043F8A42F89889980B0F8B414491CB1FB30
:10180000F4F204FB1211A0F8B414012030BD30B57D
:10181000B0F898240724531CB3FBF4F504FB1533EC
:10182000B0F89A54AB4201D1002030BDC2EBC202E5
:1018300002EB420200EBC203B1F8A220A3F8A220FF
:10184000002203E08D5C9D54521C92B2B1F8A2506C
:101850009542F7D891F8A62083F8A620B1F8A410F5
:10186000A3F8A410B0F89814491CB1FBF4F204FBDF
:101870001211A0F89814012030BD0146BC488FE732
:101880000146BC488CE70146BB48C0E710B5B0F83C
:10189000B434B0F8B624934201D1002010BD2B23FC
:1018A0005A4300EB8203B3F8A220A1F8A220002241
:1018B00003E09C5C8C54521C92B2B3F8A240944258
:1018C000F7D893F8AA2081F8AA2053F8A42F41F85A
:1018D000A42F9A888A80B0F8B6140722491CB1FB5D
:1018E000F2F302FB1311A0F8B614012010BD10B5DD
:1018F000B0F89834B0F89A24934201D1002010BD7A
:10190000C2EBC20202EB420200EBC203B3F8A22018
:10191000A1F8A220002203E09C5C8C54521C92B2DD
:10192000B3F8A2409442F7D893F8A62081F8A620F5
:10193000B3F8A420A1F8A420B0F89A140722491CF7
:10194000B1FBF2F302FB1311A0F89A14012010BDB1
:10195000014687489AE70146864897E70146864848
:10196000C5E770B50646AC201AF0ACF90446AC21C8
:1019700018F055F87E48864203D12046FFF755FA05
:1019800005E07C4886424CD12046FFF751FAC0B2B0
:10199000012846D1B4F8A200032842D3A11E014475
:1019A000801E09884DBA81B2204609F0ADFCA842DC
:1019B00037D1AC201AF086F90546AC2118F02FF883
:1019C000B4F8A210891EA5F8A210002003E0215C43
:1019D0002954401C80B2B5F8A2108142F7D894F87F
:1019E000AA0085F8AA00D4F8A400C5F8A400B4F8A9
:1019F000A800A5F8A80029463046FFF7D1FE2846E2
:101A00001AF038F95D48007801280AD194F8AA0044
:101A100010B1012802D004E059A000E05BA015F04D
:101A200021FC2046BDE870401AF024B910B550489A
:101A3000FFF797FFBDE810404E4892E770B50446A7
:101A4000AC201AF03FF90546AC2117F0E8FF294613
:101A50002046FFF71BFF01282ED195F8AA0080B37E
:101A60004223B5F8A22029464BA001F00CF998209A
:101A70001AF028F90446982117F0D1FF95F8AA002A
:101A8000A070D5F8A400A060B5F8A800A080B5F8B3
:101A9000A220294604F10E0017F0A8FF95F8A20035
:101AA0006073401CA4F8940005206070204608F084
:101AB00029FA20461AF0DEF82846BDE870401AF0F0
:101AC000D9B84123CDE710B52948FFF7B7FFBDE8E6
:101AD00010402848B2E770B50546A8201AF0F2F881
:101AE0000446A82117F09BFF21462846FFF7FFFE7A
:101AF000012855D1B4F8A200C8B3801C1AF0E2F84E
:101B000034F8A21F0546891C17F089FF2078287039
:101B10000020687034F8A2292146A81C17F066FF3F
:101B2000A6201AF0CFF80646A62117F078FF314616
:101B30002846FFF7E0FC28461AF09CF8B4F8A40009
:101B4000A6F8A20094F8A60086F8A4003046FFF795
:101B500009F9012809D194F8A60030B34223B4F85A
:101B6000A22021460CA001F04AFB304616E017E007
:101B70002C1D0020E42100209C260020D9000020FC
:101B800024503731322C412C4F4B21002450373117
:101B9000322C422C4F4B2100414900001AF06AF8C8
:101BA0002046BDE870401AF065B84123D7E71E48CB
:101BB00091E770B51C4E98201AF084F804469821DD
:101BC00017F02DFF204608F0A0F901281CD1A8200D
:101BD0001AF078F80546A82117F021FFA07885F8BB
:101BE000A600A088A5F8A400627B04F10E01284697
:101BF00017F0FCFE607BA5F8A20029463046FFF7EF
:101C000006FE28461AF036F82046BDE870401AF065
:101C100031B810B5FFF7CDFF0348FFF75CFFFFF7C2
:101C200005FFBDE810404EE79C26002010B529486E
:101C300000F031F82748BDE81040C01C00F02BB878
:101C400028B1012805D12348C01C00F02AB821483A
:101C5000FBE77047002128B1012802D11D48C01CB4
:101C6000017070471B48FBE718B1012803D0002022
:101C70007047184801E01748C01C00F019B810B5AB
:101C8000FFF7D4FF01210020FFF7DAFF0121BDE8B3
:101C900010400846D4E70021017001214170817095
:101CA00070470122027001F001014170817070479C
:101CB0000378012B01D000207047837801F00101E7
:101CC000994201D1012300E00023137081700120AB
:101CD0007047000090000020FE4809F01ABDF0B5E2
:101CE000F2B3082A00D90822C2F10804FF23E34016
:101CF00044784FF0000EA518082D18D290F800C0B7
:101D00004668C4F10804A4EB020716F80C5001EA77
:101D1000030125FA04F505FA04F506F80C500478D9
:101D2000466801FA07F145EA0105355548E01DD13D
:101D300007784568C4F10804A4EB0206EA5D01EAED
:101D4000030122FA04F202FA04F2EA550478456823
:101D500001FA06F142EA01022A5580F801E000E0AA
:101D60000AE0017801F1010101702EE0067A0578A0
:101D7000A6F10106B54201D10120F0BDD0F804C0A2
:101D8000C4F10804E7B21CF805601940E640A6401B
:101D90000CF805600478D31B456821FA03F73E432D
:101DA0002E5505784468C3F108032C44994084F803
:101DB00001E0057844682C4461700178491C017089
:101DC0004178114401F0070141700020F0BDF8B5E1
:101DD0000B460546032108246846082A03D3083A1F
:101DE0004454D2B201E042540022491E49B20029B3
:101DF000F3DADFB2C3F30726C3F30744190E9DF8E5
:101E000000202846FFF76BFF9DF801202146284659
:101E1000FFF765FF9DF8022031462846FFF75FFF78
:101E20009DF8032039462846FFF759FF0020F8BDEA
:101E300070B500230B70A2B1082A00D9082243789C
:101E40009C18082C08D805784468645D9C40E3B26F
:101E5000C2F10804E3401CE0057A04786D1EAC4230
:101E600001D1012070BD45682C5DA2F108059C40A0
:101E7000E3B20B704478E3400B7044780678254455
:101E8000AB404568C4F110043544A41A6D78E540B0
:101E90002B430B70417811440278C9B202EBD10296
:101EA000027001F007014170002070BD7CB50C4646
:101EB0000546032308206946082A03D3083AC85474
:101EC000D2B201E0CA5400225B1E5BB2002BF3DAEF
:101ED0000022104601AEB054521C52B2032AFADB63
:101EE0009DF8002031462846FFF7A2FF9DF801200B
:101EF000711C2846FFF79CFF9DF80220B11C284664
:101F0000FFF796FF9DF80320F11C2846FFF790FF8E
:101F100001989DF8071000BA20F0FF0008432060E8
:101F200000207CBD00B58BB001218DF80010002190
:101F30008DF8011068490A68019291F848108DF8EF
:101F4000081066494A7E8DF809200A88ADF80A20F3
:101F50008A788DF80C204A6804928A6805928A89EA
:101F6000ADF81820CA89ADF81A200A7C8DF81C201B
:101F70008A7E8DF81D20C97D8DF81E108DF82000F9
:101F8000010A8DF82110000CADF82200684601F01E
:101F900037FF0BB000BD00B58BB003228DF80020D9
:101FA00000228DF801204C4A1368019392F84820D2
:101FB0008DF80820494A537E8DF809301388ADF812
:101FC0000A3093788DF80C30536804939368059326
:101FD0009389ADF81830D389ADF81A30137C8DF899
:101FE0001C30937E8DF81D30D27D8DF82000000CC2
:101FF000ADF822008DF82410080A8DF825008DF820
:102000001E20684602F017F8C3E710B594B005200B
:102010008DF80000304C00208DF801002068019000
:1020200094F853008DF80800606D03900722211D7D
:1020300004A817F00BFD142204F10C010DF1170098
:1020400017F004FD14F82C0F8DF82B0034F80A0C4F
:10205000ADF82C0034F8080CADF82E0014F8060C7E
:102060008DF8300014F8050C8DF83100A07F8DF844
:102070003200207E8DF83300607E8DF83400A07E23
:102080008DF83500E07E8DF83600607812498DF8C5
:10209000370014222F310EA817F0D8FC14F8040CC6
:1020A0008DF84C00684602F0DBF814B010BD70B536
:1020B000A6B006208DF80000074800248DF80140E6
:1020C000074E00680190074D30788DF80800A86829
:1020D000039009E0382B00200C810020688100204B
:1020E000960000203C3100208DF81040A87B00F0C5
:1020F00065FD000104D1E87B00F060FD801000D098
:102100000120ADF81200E87B00F058FD800704D1F3
:10211000287C00F053FD801000D001208DF81400C1
:102120000DF11500CDE92404732023948DF894005B
:10213000287C00F043FD0146022223A8FFF747FE5A
:10214000032408E000F03AFD0146062223A8FFF729
:102150003EFE641C24B2B5F8AC00401EA04205EB64
:102160000400807BEEDC00F029FD95F8AE2040FAFB
:1021700002F1C2F10600C2B223A8AC35FFF727FE78
:102180002888A97800EB4000C1EB40001038ADF87A
:1021900088003078401C00F003003070684602F080
:1021A000FEF826B070BD00B5A3B006208DF8000083
:1021B000FF4800228DF80120FE4B016801915878FC
:1021C00003918DF8142055218DF808008DF810200A
:1021D0008DF81510ADF812200821401CADF88810BC
:1021E00000F003005870684602F0D9F823B000BD33
:1021F00000B58BB007238DF8003000238DF8013037
:10220000EB4B1B6801930123012805D002280ED057
:10221000032818D0042827D00868029010788DF879
:102220000C008DF82530684602F02FF9B1E60868F9
:10223000029010788DF80C004868049050788DF862
:102240001400022025E00868029010788DF80C0038
:102250004868049050788DF814008868069090784B
:102260008DF81C00032014E00868029010788DF8A7
:102270000C004868049050788DF814008868069027
:1022800090788DF81C00C8680890D0788DF82400EC
:1022900004208DF82500C6E730B5A5B008208DF8DC
:1022A0000000C34800248DF80140C34D0068019030
:1022B000287A00F083FC000104D1687A00F07EFCEB
:1022C000801000D00120ADF80800687A00F076FC9C
:1022D000800704D1A87A00F071FC801000D00120A2
:1022E0008DF80A000DF10B00CDE92204772021942E
:1022F0008DF88C00A87A00F061FC0146022221A82A
:10230000FFF765FD032408E000F058FC01460622B3
:1023100021A8FFF75CFD641C24B2B5F8AA00401E9A
:10232000A04205EB0400007AEEDC00F047FC95F8D3
:10233000AC2040FA02F1C2F10600C2B221A8AA35CF
:10234000FFF745FD2888A97800EB4000C1EB40006D
:102350001038ADF88200684602F034F925B030BD7F
:10236000F0B5ADB00C208DF80000002090498DF83C
:102370000100904E09680191904DB1788DF80810D8
:10238000A96803918DF8100004466F4607E02819EC
:10239000807B00F013FC3919641C487424B2B5F832
:1023A000AC00A042F3DC95F8AC008DF8AD00B0783D
:1023B000401C00F00300B070684602F0E2FA2DB055
:1023C000F0BD00B58BB00D238DF8003000238DF8E3
:1023D0000130774B1B6801930123012805D00228A7
:1023E0000ED0032818D0042827D00868029010784F
:1023F0008DF80C008DF82530684602F027FBC8E503
:102400000868029010788DF80C00486804905078A5
:102410008DF81400022025E00868029010788DF8ED
:102420000C004868049050788DF814008868069075
:1024300090788DF81C00032014E008680290107852
:102440008DF80C004868049050788DF81400886866
:10245000069090788DF81C00C8680890D0788DF8A8
:10246000240004208DF82500C6E770B5ACB00E201E
:102470008DF8000000208DF801004D4800244E4DDD
:1024800000686E46019007E02819007A00F096FB7C
:102490003119641C087224B2B5F8AA00A042F3DC1A
:1024A00095F8AA008DF8A900684602F070FB2CB0E0
:1024B00070BD10B58AB012238DF8003000238DF85E
:1024C00001303B4B1B6801933D4B1C88ADF8084025
:1024D0009C788DF80A405C6803949C6804949C89FD
:1024E000ADF81440DC89ADF816401C7C8DF818401E
:1024F0005C7C8DF819409C7C8DF81A40DC7C8DF852
:102500001B401C7D8DF81C405C7D8DF81D409C7D22
:102510008DF81E40DC7D8DF81F401B7E8DF820302D
:10252000CCB20B0C8DF8224058B1ADF824308DF8A8
:102530002620100A8DF82700684602F027FD0AB011
:1025400010BD080A8DF82300ADF82430F4E700B57B
:102550008BB01C49019140F2FF31ADF808101220F8
:102560008DF80000184900200391184904918DF856
:1025700001004FF46161ADF8141040F2FF11ADF8A5
:1025800016103C218DF818108DF819008DF82000D8
:102590008DF80A008DF81A008DF822008DF81B00C6
:1025A00007908DF82300ADF82400684610E0000085
:1025B0000C81002096000020EC3100203C310020EE
:1025C00068810020FFC99A3BC01A79064021410367
:1025D00002F0DCFCDDE430B58FB013208DF8000094
:1025E000FF4D00208DF80100FE4C55F80E0B0190B8
:1025F0002088ADF80800A0788DF80A006068039084
:10260000A0680490A089ADF81400E089ADF8160028
:10261000207CF3498DF8180014220C310DF11900BB
:1026200017F014FAA87F8DF82D00A88AADF82E00B7
:10263000E88AADF83000287E8DF83200687E8DF88B
:10264000330095F83C008DF83400E07D8DF83500BE
:10265000A87E8DF83600A07D8DF83700684602F020
:102660004EFD0FB030BD00B589B018208DF80000C8
:10267000DB4900208DF8010009680191D8498DF8E7
:10268000080014220C310DF1090017F0DFF968463B
:1026900003F07FF809B000BD10B58AB018208DF89E
:1026A0000000CF4C00208DF801002068019001202F
:1026B0008DF8080094F82C008DF8090000206A4677
:1026C0002118131891F84B10401C01F03F0100B283
:1026D00019730328F4DB94F84E00C0F383018DF8DE
:1026E0000F1080070BD194F84F00800607D194F8A3
:1026F0005000800603D194F85200800600D00120DB
:1027000004900722211D05A817F0A0F934F8220F24
:10271000ADF81C006088ADF81E0020798DF820000F
:1027200060798DF82100684603F072F807E7AD483C
:102730000088A0F54071FF3911D0142802D841F665
:102740005E200AE08C2802D840F2654005E0E628C9
:1027500002D840F2322000E0BB2006F04EBC7047A9
:1027600070B5A14809F05FFD9F4A9E4C012801D039
:102770003C2010E0908C40F2FE3180B220808842F4
:1027800000D908462080D06960605069A060B2F826
:102790007400A081107C207492F886000126002528
:1027A000012804D0E575B2F8800080B111E0E6752B
:1027B00032F87A1F5088494300FB001017F0A9FB3C
:1027C00019F0F2FF17F052FC8849884201DDA5702C
:1027D00000E0A670002070BD70B5054617F003FC40
:1027E000824C15F1FF4F04D2814A824B17F0F2F967
:1027F00004E04FF03332804B17F090FA17F036FCBC
:10280000214617F0B5F917F0A2FB80B24FF46161D1
:10281000884200D9084670BD10B5784A784B17F049
:1028200080FABDE810400022764B17F0ECBA2DE993
:10283000FF5F0EAE96E83003FFF7EEFF06460F4649
:1028400020462946FFF7E8FF04460D4632463B4640
:1028500017F064FA82468B4640464946FFF7DCFF94
:1028600080468946DDE90201FFF7D6FF42464B4626
:1028700017F051FA4FF0FF3217F034FB19F044FF14
:1028800000224FF0804319F053FA804689462046D3
:10289000294619F0A1F904460D463046394619F08B
:1028A0009BF922462B4617F03CFA42464B4617F05E
:1028B00038FA04460D464FF0FF325046594617F09D
:1028C00011FB19F021FF00224FF0804319F030FA7C
:1028D00022462B4617F07EF919F066FF19F02EF804
:1028E000012217F0FFFA484A484B17F01AFA002263
:1028F000474B17F016FA0022464B17F06BF904B05D
:10290000BDE8F05F17F037BB2DE9F04FDFF8D89046
:1029100041484D4699F8C4802A8AB5F80EC0AF895F
:102920006B89EE69696A90F8AC006D6985B0B8F1A1
:10293000010F02D0012873D0DEE00128FCD1B9F8E4
:10294000BE00C846101A02B2B9F8BC00ACEB0000D9
:1029500001B2B9F8BA00381AB9F8B87000B2DB1B86
:102960001BB2002A03DA3C32491E12B209B2002916
:1029700003DA3C31401E09B200B2002803DA1830F5
:102980005B1E00B21BB2002B01DA002395E0C1EB05
:10299000011102EB8101C0EB4012C2EB002001EB00
:1029A0000010012304B22E2C7DDBB4F5E16F7ADC3C
:1029B000D8F8B00017F0ADFA0022184B17F023FA40
:1029C00007468946D8F8B40017F0A3FA0022134B43
:1029D00017F019FA82468B46284617F09AFA20E03B
:1029E0000C81002068810020382B0020000020414D
:1029F0009A9999999999A93F330359404AD8124D08
:102A0000FB210940008066408D976E1223EAB84092
:102A100000408F400000E03FE08B0020804F2241CB
:102A20006FE000223D4B17F0EEF905463046049169
:102A300017F06FFA0022394B17F0E5F98DE8800E98
:102A400002460B4628460499FFF7F1FE17F061FA9B
:102A50000022334B17F0D7F906460F46204617F0F1
:102A600058FA02460B463046394617F0CCF9002298
:102A70002C4B17F056F900222B4B17F052F900227D
:102A80002A4B17F0A7F817F095FA85B232463B4665
:102A900027A0C8F8C05014F080FB214628A014F0ED
:102AA0007CFB2CA000E008E0D8F8241014F075FBA3
:102AB00029462CA014F071FB05E0B8F8C00085B2DF
:102AC0000BB12E2C19DBD8F81410C8F8B010D8F8B8
:102AD0001C10C8F8B410B8F80A10A8F8B810B8F864
:102AE0000C10A8F8BA10B8F80E10A8F8BC10B8F876
:102AF0001010A8F8BE1000E08DB205B02846BDE861
:102B0000F08F4846E0E92C5603814781A0F80CC0BD
:102B1000C2810122016189F8C420EDE7804F224182
:102B200000F09C400020AC40000024400000E03F4A
:102B300064697374616E63653A20256C660D0A00E2
:102B400073735365634469666653756D3A202564F3
:102B50000D0A0000534F475F4750533A20256C64DD
:102B60000D0A0000534F475F43414C3A20256C64E7
:102B70000D0A0000002101804180818002228160D5
:102B800002734173A0F8AC1080F8AE1080F8AF105B
:102B90007047002101804180818002228271C171D1
:102BA000A0F8AA1080F8AC1080F8AD107047FC486F
:102BB0000021A0F83015A0F8321570472830802881
:102BC00001D9203000E0283000F03F00704728286D
:102BD00001D2303000E03830C0B2704710B590F804
:102BE0003015B0F83205491C01F00F0181420CD1BB
:102BF00011F091FE044611F092FE0146E94B224687
:102C0000E9A014F0D7FA012010BD002010BDB0F8E3
:102C10003015B0F83205814201D101207047002003
:102C2000704770B50D460446FFF7D8FF08B1002085
:102C300070BDB4F83005532100FB0140294616F061
:102C40002CFF94F83005401C00F00F00A4F830056C
:102C5000012070BD10B50A460446FFF7D8FF08B141
:102C6000002010BDB4F83205532101FB004110468D
:102C700016F013FF94F83205401C00F00F00A4F882
:102C80003205012010BD2DE9FF4F9DB08346002085
:102C9000CDE91A101990D0008DF86C200621B0FBF8
:102CA000F1F201FB1202CAB3B0FBF1F2521C94B272
:102CB000B0FBF1F201FB1200C0F10600C5B29DF8B5
:102CC0008000C4494FF00A0A412876D04228FCD03F
:102CD0003E2C60D8C0A1684617F050FE022259462B
:102CE000684616F0C6FEBDA1684616F0A3FEBCA15C
:102CF000684616F09FFEBAA1684616F09BFEB9A181
:102D0000684616F097FEB7A1684616F093FEB5A187
:102D1000684616F08FFE0026641E17E0FFE7B0FB42
:102D2000F1F084B20025CAE7062218A919A8FFF716
:102D30007FF89DF86000FFF74AFF8DF860000122E0
:102D400018A9684616F095FE761CF6B2A642EBDB93
:102D5000C5F1060218A919A8FFF76AF89DF86000E6
:102D6000A840C0B2FFF733FF8DF86000012218A918
:102D7000684616F07EFE2A469BA115A817F0FEFDB8
:102D800015A9684616F056FE69468548FFF749FFC3
:102D900021B0BDE8F08F3D20B4FBF0F200FB124201
:102DA00062B1B4FBF0F2521CD6B2B4FBF0F200FBFD
:102DB000124080460127894653E0C5E0B4FBF0F09D
:102DC000C6B23D20F5E717F0D9FD02225946684604
:102DD00016F04FFE81A1684616F02CFE324682A105
:102DE00015A817F0CBFD15A9684616F023FE3A4644
:102DF0007DA115A817F0C2FD15A9684616F01AFEA8
:102E000099F8002078A115A817F0B8FD15A9684613
:102E100016F010FE73A1684616F00CFE71A168460C
:102E200016F008FE0024062218A919A8FFF700F8DA
:102E30009DF86000FFF7CBFE8DF86000012218A915
:102E4000684616F016FE641CE4B23D2CEBD367A175
:102E5000684616F0EFFD69465148FFF7E2FE7F1C19
:102E6000FFB2B7425CA16846ADD317F087FD0222DE
:102E70005946684616F0FDFD58A1684616F0DAFD81
:102E8000324659A115A817F079FD15A9684616F024
:102E9000D1FD3A4654A115A817F070FD15A9684652
:102EA00016F0C8FD4F4699F800204FA115A817F05D
:102EB00065FD15A9684616F0BDFD4AA1684616F0E5
:102EC000B9FD48A1684616F0B5FD0024A8F1010639
:102ED00011E0062218A919A8FEF7AAFF9DF86000C4
:102EE000FFF775FE8DF86000012218A9684616F0FC
:102EF000C0FD641CE4B2B442EBDBC5F1060218A9C4
:102F000019A8FEF795FF9DF86000A840C0B2FFF732
:102F10005EFE8DF86000012218A9684616F0A9FD32
:102F20002A4631A115A817F029FD15A9684616F003
:102F300081FD69461A48FFF774FE3978491CB1FBD8
:102F4000FAF20AFB121058E13D2C66D822A168461D
:102F500017F014FD02225946684616F08AFD1FA19B
:102F6000684616F067FD1EA1684616F063FD1CA1B9
:102F7000684616F05FFD1BA1684616F05BFD19A1BF
:102F8000684616F057FD012220A9684616F071FD2B
:102F900014A1684616F04EFD0026641E3AE00000BB
:102FA000082C002010C80108245B2536643A25341B
:102FB000645D202573203A2053656E74656E6365E9
:102FC0002071756575652069732066756C6C210DBF
:102FD0000A000000990000202100000056444D0026
:102FE0002C3100002C0000002C2564002C30000047
:102FF000062218A919A8FEF71BFF9DF86000FFF72D
:10300000E6FD8DF86000012218A9684616F031FD32
:10301000761CF6B2A642EBDB9AE63C20B4FBF0F25B
:1030200000FB12425AB1B4FBF0F2521CD6B2B4FB10
:10303000F0F200FB12408046012789465EE0B4FBB7
:10304000F0F0C6B23C20F6E717F098FC0222594691
:10305000684616F00EFDAFF27C01684616F0EAFCF9
:103060003246AFF27C0115A817F088FC15A9684616
:1030700016F0E0FC3A46AFF2900115A817F07EFC7E
:1030800015A9684616F0D6FC99F80020AFF2A80101
:1030900015A817F073FC15A9684616F0CBFCAFF223
:1030A000BC01684616F0C6FC012220A9684616F04D
:1030B000E0FCAFF2D001684616F0BCFC002406220A
:1030C00018A919A8FEF7B4FE9DF86000FFF77FFD70
:1030D0008DF86000012218A9684616F0CAFC641C2D
:1030E000E4B23C2CEBD3AFF2FC01684616F0A2FC34
:1030F0006946FD48FFF795FD7F1CFFB2B742AFF26E
:1031000028116846A0D317F039FC022259466846B8
:1031100016F0AFFCAFF23C11684616F08BFC32465D
:10312000AFF23C1115A817F029FC15A9684616F056
:1031300081FC3A46AFF2501115A817F01FFC15A9F3
:10314000684616F077FC99F800204F46AFF26811F8
:1031500015A817F013FC15A9684616F06BFCAFF222
:103160007C11684616F066FC012220A9684616F01C
:1031700080FCAFF29011684616F05CFC0024A8F1C8
:10318000010611E0062218A919A8FEF751FE9DF8C4
:103190006000FFF71CFD8DF86000012218A9684649
:1031A00016F067FC641CE4B2B442EBDBC5F1060226
:1031B00018A919A8FEF73CFE9DF86000A840C0B20F
:1031C000FFF705FD8DF86000012218A9684616F08A
:1031D00050FC2A46AFF2F01115A817F0CFFB15A945
:1031E000684616F027FC6946BF48FFF71AFD387895
:1031F000401CB0FBFAF20AFB12003870C8E52DE95A
:10320000FF4F9DB083460020CDE91A101990D000E1
:103210008DF86C200621B0FBF1F201FB1202EAB33B
:10322000B0FBF1F2521C94B2B0FBF1F201FB1200C0
:10323000C0F10600C5B29DF88000AC494FF00A0A03
:1032400041287CD04228FCD03E2C66D8AFF27821B1
:10325000684617F093FB02225946684616F009FCAF
:10326000A3A1684616F0E6FBAFF28C21684616F083
:10327000E1FBAFF29421684616F0DCFBAFF29C2133
:10328000684616F0D7FBAFF2A421684616F0D2FBD1
:10329000AFF2B021684616F0CDFB00E002E0002658
:1032A000641E16E0B0FBF1F084B20025C3E70622ED
:1032B00018A919A8FEF7BCFD9DF86000FFF787FC70
:1032C0008DF86000012218A9684616F0D2FB761C22
:1032D000F6B2A642EBDBC5F1060218A919A8FEF763
:1032E000A7FD9DF86000A840C0B2FFF770FC8DF804
:1032F0006000012218A9684616F0BBFB2A46AFF20F
:10330000183115A817F03AFB15A9684616F092FB7C
:1033100069467548FFF785FC3AE53D20B4FBF0F2BD
:1033200000FB124262B1B4FBF0F2521CD6B2B4FB05
:10333000F0F200FB124080460127894659E0D9E0AF
:10334000B4FBF0F0C6B23D20F5E717F017FB022200
:103350005946684616F08DFB65A1684616F06AFB73
:103360003246AFF27C3115A817F008FB15A9684664
:1033700016F060FB3A46AFF2903115A817F0FEFA4E
:1033800015A9684616F056FB99F80120AFF2A8314E
:1033900015A817F0F3FA15A9684616F04BFBAFF223
:1033A000BC31684616F046FBAFF2C831684616F0ED
:1033B00041FB0024062218A919A8FEF739FD9DF843
:1033C0006000FFF704FC8DF86000012218A9684630
:1033D00016F04FFB641CE4B23D2CEBD3AFF2F4319A
:1033E000684616F027FB69463F48FFF71AFC7F1C2A
:1033F000FFB2B742AFF220416846A6D317F0BEFA3B
:1034000002225946684616F034FB39A1684616F088
:1034100011FB3246AFF2304115A817F0AFFA15A9EB
:10342000684616F007FB3A46AFF2444115A817F07C
:10343000A5FA15A9684616F0FDFA99F801204F463D
:10344000AFF25C4115A817F099FA15A9684616F075
:10345000F1FAAFF27041684616F0ECFAAFF27C4137
:10346000684616F0E7FA0024A8F1010611E00622EA
:1034700018A919A8FEF7DCFC9DF86000FFF7A7FB70
:103480008DF86000012218A9684616F0F2FA641C53
:10349000E4B2B442EBDBC5F1060218A919A8FEF7A5
:1034A000C7FC9DF86000A840C0B2FFF790FB8DF804
:1034B0006000012218A9684616F0DBFA2A46AFF22E
:1034C000D84115A817F05AFA15A9684616F0B2FAAD
:1034D00069460548FFF7A5FB7978491CB1FBFAF26C
:1034E0000AFB12103DE10000082C0020990000208A
:1034F00056444F003D2C44D8AFF22451684617F093
:103500003DFA02225946684616F0B3FAAFF220019E
:10351000684616F08FFAAFF23851684616F08AFA0C
:10352000AFF24451684616F085FAAFF2485168464A
:1035300016F080FAAFF25451684616F07BFA012279
:1035400020A9684616F095FAAFF26851684616F061
:1035500071FA0026641E11E0062218A919A8FEF7C8
:1035600067FC9DF86000FFF732FB8DF860000122D8
:1035700018A9684616F07DFA761CF6B2A642EBDB77
:10358000A9E63C20B4FBF0F200FB12425AB1B4FBB6
:10359000F0F2521CD6B2B4FBF0F200FB12408046AF
:1035A000012789465EE0B4FBF0F0C6B23C20F6E7A6
:1035B00017F0E4F902225946684616F05AFAAFF2BB
:1035C000D001684616F036FA3246AFF2E45115A83B
:1035D00017F0D4F915A9684616F02CFA3A46AFF25E
:1035E000F85115A817F0CAF915A9684616F022FA7D
:1035F00099F80120AFF2106115A817F0BFF915A9CD
:10360000684616F017FAAFF22461684616F012FA0F
:10361000012220A9684616F02CFAAFF238616846FC
:1036200016F008FA0024062218A919A8FEF700FCD3
:103630009DF86000FFF7CBFA8DF86000012218A911
:10364000684616F016FA641CE4B23C2CEBD3AFF2D9
:103650006461684616F0EEF96946FE48FFF7E1FA44
:103660007F1CFFB2B742AFF290616846A0D317F05B
:1036700085F902225946684616F0FBF9AFF290111F
:10368000684616F0D7F93246AFF2A46115A817F0D4
:1036900075F915A9684616F0CDF93A46AFF2B8614A
:1036A00015A817F06BF915A9684616F0C3F999F833
:1036B00001204F46AFF2D06115A817F05FF915A9A8
:1036C000684616F0B7F9AFF2E461684616F0B2F951
:1036D000012220A9684616F0CCF9AFF2F8616846DD
:1036E00016F0A8F90024A8F1010611E0062218A995
:1036F00019A8FEF79DFB9DF86000FFF768FA8DF8AA
:103700006000012218A9684616F0B3F9641CE4B2FF
:10371000B442EBDBC5F1060218A919A8FEF788FB35
:103720009DF86000A840C0B2FFF751FA8DF8600024
:10373000012218A9684616F09CF92A46AFF2587182
:1037400015A817F01BF915A9684616F073F9694614
:10375000C048FFF766FA7878401CB0FBFAF20AFB23
:10376000120078704AE52DE9F04399B00D46DDE985
:10377000209807461E461446B7A1684617F0FEF883
:1037800002223946684616F074F9B4A1684616F06C
:1037900051F9AFF2B071684616F04CF92A46B0A163
:1037A00015A817F0EBF815A9684616F043F9AFF223
:1037B000CC71684616F03EF9A4B3ABA1684616F08A
:1037C00039F9AFF2E071684616F034F93246A7A134
:1037D00015A817F0D3F815A9684616F02BF9AFF223
:1037E000FC71684616F026F94A46A0A115A817F004
:1037F000C5F815A9684616F01DF9AFF61801684618
:1038000016F018F9424699A115A817F0B7F815A9AE
:10381000684616F00FF969468E48FFF702FA19B0AC
:10382000BDE8F083FFE792A1C8E700B595B069460F
:10383000FFF710FA012802D1684613F013FD15B006
:1038400000BD8448F1E72DE9F34FADB0052289A111
:103850002D9816F02BF9894F01264FF0020B4FF0EF
:10386000000A1E2550B1052285A12D9816F01EF9DB
:1038700000287DD001202FB0BDE8F08F7878012896
:1038800077D10095DDE92D03012201A90AF07FFE21
:1038900010F0FF0F05D001A816F0E4F8C0B201281F
:1038A00001D079A05FE10A222BA901A816F00DF939
:1038B0002B9909780029F4D1411E0929F1D28046BB
:1038C0000095DDE92D03022201A90AF060FE10F047
:1038D000FF0FE6D001A816F0C5F8C0B20128E0D16C
:1038E0000A222BA901A816F0F0F82B9909780029D3
:1038F000D7D1411E0929D4D20746B8F1010F1BD9EF
:103900000095DDE92D03032201A90AF040FE10F025
:10391000FF0FC6D001A816F0A5F8C0B20128C0D18B
:103920000A222BA901A816F0D0F82B9909780029B2
:10393000B7D10A28B5D204460095DDE92D03A94682
:10394000042201A90AF023FE10F0FF0FA9D001A85C
:1039500016F088F8C0B20928A3D10A222BA901A821
:1039600016F0B3F82B99097800299AD14A4D01E055
:10397000E5E0FAE0A860CDF80090DDE92D0305222E
:1039800001A90AF004FE10F0FF0F1CD001A816F0E8
:1039900069F8C0B2012884D10A222BA901A816F027
:1039A00094F82B990978002985D1042886D201281A
:1039B00004D0022805D085F80CB006E085F80CA0EC
:1039C00003E02E7301E0012FA3D0CDF80090DDE9D4
:1039D0002D03062201A90AF0DAFD10F0FF0F14D022
:1039E00001A816F03FF8C0B2022898D10A222BA9EC
:1039F00001A816F06AF82B99097800298FD10628BA
:103A000001D00C288BD1687301E0012F9ED03C209F
:103A10000090DDE92D03072201A90AF0B8FD10F09E
:103A2000FF0F93D001A816F01DF8C0B2401E3C282D
:103A3000BCD201A916A816F030F8CDF80090DDE947
:103A40002D03082201A90AF0A2FD10F0FF0FBBD040
:103A500001A823E0082C00202400000041424B0074
:103A60002530396400000000420000002564000099
:103A700041000000414941424D000000F08000201B
:103A8000414942424D0000002444554149522C30E6
:103A90002C41424D000000003C31002015F0E2FFB7
:103AA000C0B20128A1D10A222BA901A816F00DF855
:103AB0002B990978002998D10628B9D2DFF808B3E4
:103AC0008146012F15D0A888A04236D16888401CB5
:103AD000B84232D12988B9422FD322D9688016A999
:103AE000584615F0A7FF584615F0BCFFA5F8AC00E6
:103AF00023E085F8AFA016A9584615F0CEFF58462A
:103B000015F0B0FFA5F8AC00B8F1010F04D9A5F885
:103B100000806E80AC8010E085F8AE9085F8AF60D4
:103B20000BE016A9584615F085FF584615F09AFF88
:103B300025F8AC0F85F80290EE70A4A013E0787819
:103B4000012812D10095DDE92D03012201A90AF017
:103B50001EFD10F0FF0F7AD001A815F083FFC0B250
:103B6000012874D103E013F07DFB002083E60A22D4
:103B70002BA901A815F0A9FF2B990978002966D176
:103B8000411E092963D207460095DDE92D03A846A9
:103B9000022201A90AF0FBFC10F0FF0F57D001A888
:103BA00015F060FFC0B2012851D10A222BA901A84B
:103BB00015F08BFF2B990978002948D1411E09295E
:103BC00045D20546012F1BD9CDF80080DDE92D0334
:103BD000032201A90AF0DBFC10F0FF0F37D001A887
:103BE00015F040FFC0B2012831D10A222BA901A84B
:103BF00015F06BFF2B99097849BB0A2827D2044698
:103C0000CDF80080DDE92D03C146042201A90AF0A8
:103C1000BEFCDFF8B48110F0FF0F08F1A2081DD040
:103C200001A815F01FFFC0B2012810D10A222BA94C
:103C300001A815F04AFF2B99097841B9042806D24A
:103C4000012805D0022806D088F806B008E05FE019
:103C500088F806A004E088F8066001E0012D74D021
:103C6000CDF80090DDE92D03052201A90AF08FFCB3
:103C700010F0FF0F15D001A815F0F4FEC0B2401EE1
:103C8000022862D20A222BA901A815F01EFF2B9947
:103C90000978E9BB082801D00E2856D188F807001A
:103CA00001E0012D51D03C200090DDE92D030622DA
:103CB00001A90AF06CFC10F0FF0F46D001A815F026
:103CC000D1FEC0B2401E3C283FD201A916A815F073
:103CD000E4FECDF80090DDE92D03072201A90AF0EA
:103CE00056FC10F0FF0F30D001A815F0BBFEC0B29B
:103CF00001282AD10A222BA901A815F0E6FE2B994A
:103D0000097829B9062820D28146DFF8BCB000E046
:103D10001BE00BF1AA0B012D19D0B8F8040047469F
:103D2000A04237D17888401CA84233D13988A942B3
:103D300030D323D9788016A9584615F07BFE584613
:103D400015F090FEA7F8AA0024E024A00BE7454652
:103D500088F8ADA016A9584615F09FFE584615F0F4
:103D600081FEA5F8AA00012F03D92F806E80AC80B8
:103D700010E085F8AC9085F8AD600BE016A95846C8
:103D800015F058FE584615F06DFE27F8AA0F87F873
:103D90000290FE7015A0E6E690F8AF00704790F82C
:103DA000AD007047154800B50021A0F83015A0F807
:103DB000321500F23450FEF7DDFE03485DF804EBE7
:103DC000A230FEF7E6BE00004A31002024445541EF
:103DD00049522C312C41424D0000000024445541F1
:103DE00049522C302C42424D0000000024445541E1
:103DF00049522C312C42424D00000000082C00207A
:103E00003EB500250446FE480095CDE90105162083
:103E10008DF80800082229466846FDF7D8FF21786A
:103E200006226846FDF7D3FF617802226846FDF757
:103E3000CEFF1E2268466168FDF7C9FF217A042281
:103E40006846FDF7C4FF94F9091008226846FDF79B
:103E5000BEFF61890A226846FDF7B9FF217B012276
:103E60006846FDF7B4FF1C2268462169FDF7AFFFE5
:103E70001B2268466169FDF7AAFF218B0C22684668
:103E8000FDF7A5FF618B09226846FDF7A0FF217FA2
:103E900006226846FDF79BFF617F02226846FDF718
:103EA00096FF032200216846FDF791FFA17F0122C2
:103EB0006846FDF78CFF94F8201002226846FDF753
:103EC00086FF94F8211003226846FDF780FF94F8DE
:103ED000210068B101280BD0022809D0042807D09E
:103EE000062805D0032803D0052801D0072804D1CF
:103EF000618C0E226846FDF76AFF9DF800009DF870
:103F0000011001B9401EC1B28DF800508DF801506A
:103F100008226846FDF75BFF3EBD3EB5044600251E
:103F2000B74800951630CDE9010516208DF8080038
:103F3000082229466846FDF74AFF2178062268468E
:103F4000FDF745FF617802226846FDF740FF1E221B
:103F500068466168FDF73BFF217A04226846FDF759
:103F600036FF94F9091008226846FDF730FF618991
:103F70000A226846FDF72BFF217B01226846FDF7E8
:103F800026FF1C2268462169FDF721FF1B22684697
:103F90006169FDF71CFF218B0C226846FDF717FFB6
:103FA000618B09226846FDF712FF217F06226846D1
:103FB000FDF70DFF617F02226846FDF708FF03222F
:103FC00000216846FDF703FFA17F01226846FDF747
:103FD000FEFE94F8201002226846FDF7F8FE94F8E1
:103FE000211003226846FDF7F2FE94F8210068B123
:103FF00001280BD0022809D0042807D0062805D0B4
:10400000032803D0052801D0072804D1618C0E2293
:104010006846FDF7DCFE9DF800009DF8011001B92F
:10402000401EC1B28DF800508DF80150082268463C
:10403000FDF7CDFE3EBD3EB5044600257048009517
:104040002C30CDE9010516208DF8080008222946FC
:104050006846FDF7BCFE217806226846FDF7B7FEEC
:10406000617802226846FDF7B2FE1E22684661684A
:10407000FDF7ADFE217A04226846FDF7A8FE94F90B
:10408000091008226846FDF7A2FE61890A226846E7
:10409000FDF79DFE217B01226846FDF798FE1C225C
:1040A00068462169FDF793FE1B2268466169FDF7AA
:1040B0008EFE218B0C226846FDF789FE618B09225A
:1040C0006846FDF784FE217F06226846FDF77FFEE5
:1040D000617F02226846FDF77AFE032200216846CE
:1040E000FDF775FEA17F01226846FDF770FE94F88A
:1040F000201002226846FDF76AFE618C0D22684698
:10410000FDF765FE94F8241003226846FDF75FFE74
:1041100094F8251001226846FDF759FE9DF800002D
:104120009DF8011001B9401EC1B28DF800508DF804
:10413000015008226846FDF74AFE3EBD3EB50446E2
:1041400000252F4800954230CDE9010516208DF855
:104150000800082229466846FDF739FE2178062224
:104160006846FDF734FE617802226846FDF72FFEAF
:104170001E2268466168FDF72AFE21890E226846E4
:10418000FDF725FEA17A04226846FDF720FEE17ABC
:1041900005226846FDF71BFE217B05226846FDF7D8
:1041A00016FE617B06226846FDF711FEA17B062202
:1041B0006846FDF70CFEE17B01226846FDF707FE2D
:1041C0001C2268462169FDF702FE1B2268466169D0
:1041D000FDF7FDFD217E04226846FDF7F8FD617EB6
:1041E00001226846FDF7F3FD092200216846FDF72C
:1041F000EEFDA17E01226846FDF7E9FD217F01E089
:104200009C32002002226846FDF7E1FD617F032217
:104210006846FDF7DCFD607F68B101280BD00228FD
:1042200009D0042807D0062805D0032803D0052884
:1042300001D0072804D1E18B0E226846FDF7C7FDA7
:104240009DF800009DF8011001B9401EC1B28DF823
:1042500000508DF8015008226846FDF7B8FD3EBDBC
:10426000FEB500260446FE480096CDE9010636203C
:104270008DF80800082231466846FDF7A8FD217830
:1042800006226846FDF7A3FD617802226846FDF725
:104290009EFD1E2268466168FDF799FD217A022283
:1042A0006846FDF794FD1E226846E168FDF78FFD24
:1042B000002560190622017C6846FDF788FD6D1C0B
:1042C000EDB2072DF5D3002560190622C17D6846A1
:1042D000FDF77DFD6D1CEDB2142DF5D394F82B1078
:1042E000082268462C34FDF772FD218809226846B1
:1042F000FDF76DFD618809226846FDF768FD2179AB
:1043000006226846FDF763FD617906226846FDF7DF
:104310005EFDA17904226846FDF759FDE17904228A
:104320006846FDF754FD217A05226846FDF74FFDEA
:10433000617A05226846FDF74AFDA17A06226846A1
:10434000FDF745FDE17A082268462C3CFDF73FFD6C
:1043500000256019062290F838106846FDF737FDF1
:104360006D1CEDB2142DF4D394F84C100122684664
:10437000FDF72DFD012200216846FDF728FD9DF87F
:1043800000009DF8011001B9401EC1B28DF8006017
:104390008DF8016008226846FDF719FDFEBDFEB5E7
:1043A00004460027AE4800973630CDE901077F204C
:1043B0008DF80800082239466846FDF708FD217887
:1043C00006226846FDF703FD617802226846FDF784
:1043D000FEFC1E2268466168FDF7F9FC217A022284
:1043E0006846FDF7F4FC1E226846E168FDF7EFFC25
:1043F000217C01226846FDF7EAFC01220021684683
:10440000FDF7E5FC618A0A226846FDF7E0FC217DA4
:1044100006226846FDF7DBFCB4F888104FF466709E
:10442000814201D9A4F88800B4F888000025C0F3BF
:10443000C70607E060190822417D6846FDF7C7FC02
:104440006D1CEDB2B542F5D394F8880010F0070664
:104450000BD060193246417D6846FDF7B8FCC6F1C5
:10446000080200216846FDF7B2FC9DF800009DF8A7
:10447000011001B9401EC1B28DF800708DF80170B5
:1044800008226846FDF7A3FCFEBD3EB504460025A4
:1044900073480095B530CDE9010516208DF8080068
:1044A000082229466846FDF792FC217806226846D4
:1044B000FDF78DFC617802226846FDF788FC1E221C
:1044C00068466168FDF783FC022200216846FDF71B
:1044D0007EFC94F82500012805D002280AD0032884
:1044E00022D004283BD01E226846A168FDF76FFC4D
:1044F000217B0FE01E226846A168FDF768FC217B46
:1045000002226846FDF763FC1E2268462169FDF71A
:104510005EFC217D02226846FDF759FC9DF80000F3
:104520009DF80110E9B343E01E226846A168FDF73B
:104530004EFC217B02226846FDF749FC1E2268469C
:104540002169FDF744FC217D02226846FDF73FFC0E
:104550001E226846A169FDF73AFC217FDAE71E2298
:104560006846A168FDF733FC217B02226846FDF70F
:104570002EFC1E2268462169FDF729FC217D0222BE
:104580006846FDF724FC1E226846A169FDF71FFC62
:10459000217F02226846FDF71AFC1E226846216A26
:1045A00000E004E0FDF713FC94F82410B2E7401E8D
:1045B000C1B28DF800508DF8015008226846FDF711
:1045C00006FC3EBDFEB50446002725480097CB30CB
:1045D000CDE901077F208DF808000822394668469A
:1045E000FDF7F5FB217806226846FDF7F0FB6178C0
:1045F00002226846FDF7EBFB1E2268466168FDF764
:10460000E6FB022200216846FDF7E1FB21890A2230
:104610006846FDF7DCFBA17A06226846FDF7D7FB6A
:10462000B4F882104FF46E70814201D9A4F8820070
:10463000B4F882000025C0F3C70607E0601908221D
:10464000C17A6846FDF7C3FB6D1CEDB2B542F5D3E8
:1046500094F8820010F007060ED06019C17A01E0CC
:10466000F432002032466846FDF7B1FBC6F108027D
:1046700000216846FDF7ABFB9DF800009DF8011096
:1046800001B9401EC1B28DF800708DF8017008228A
:104690006846FDF79CFBFEBD3EB500250446FE487E
:1046A0000095CDE9010516208DF80800082229465D
:1046B0006846FDF78CFB217806226846FDF787FBEC
:1046C000617802226846FDF782FB1E226846616817
:1046D000FDF77DFB21890C226846FDF778FB618997
:1046E0000A226846FDF773FB217B01226846FDF72D
:1046F0006EFB1C2268462169FDF769FB1B22684698
:104700006169FDF764FB218B0C226846FDF75FFBB6
:10471000A17E06226846FDF75AFBE17E012268462B
:10472000FDF755FB072200216846FDF750FB217F6E
:1047300001226846FDF74BFB032200216846FDF786
:1047400046FB617F01226846FDF741FBA17F012204
:104750006846FDF73CFBE17F01226846FDF737FB29
:10476000E07F14F8201F00284FF0020268460ED0A8
:10477000FDF72DFB61880D226846FDF728FB2179A6
:1047800003226846FDF723FB6179012219E0FDF75A
:104790001EFB617803226846FDF719FB6078203C18
:1047A00068B101280BD0022809D0042807D00628B8
:1047B00005D0032803D0052801D0072804D1618C37
:1047C0000E226846FDF703FB9DF800009DF80110DE
:1047D00001B9401EC1B28DF800508DF80150082279
:1047E0006846FDF7F4FA3EBD3EB504460025AA48EA
:1047F00000951630CDE901050A208DF80800082241
:1048000029466846FDF7E3FA217806226846FDF757
:10481000DEFA617802226846FDF7D9FA1E22684660
:104820006168FDF7D4FA022200216846FDF7CFFA4D
:104830001E226846A168FDF7CAFA022200216846D6
:10484000FDF7C5FA9DF800009DF8011001B9401E62
:10485000C1B28DF800508DF8015008226846FDF76E
:10486000B6FA3EBD3EB5044600258B480095203083
:10487000CDE9010516208DF8080008222946684672
:10488000FDF7A5FA217806226846FDF7A0FA6178BF
:1048900002226846FDF79BFA1E2268466168FDF712
:1048A00096FA21890E226846FDF791FAA17A042230
:1048B0006846FDF78CFAE17A05226846FDF787FA2B
:1048C000217B05226846FDF782FA617B0622684655
:1048D000FDF77DFAA17B06226846FDF778FAE17BB9
:1048E00001226846FDF773FA1C2268462169FDF72C
:1048F0006EFA1B2268466169FDF769FA217E04227F
:104900006846FDF764FA617E01226846FDF75FFAAA
:10491000092200216846FDF75AFAA17E0122684665
:10492000FDF755FA217F02226846FDF750FA617FB4
:1049300003226846FDF74BFA607F68B101280BD06F
:10494000022809D0042807D0062805D0032803D060
:10495000052801D0072804D1E18B0E226846FDF717
:1049600036FA9DF800009DF8011001B9401EC1B251
:104970008DF800508DF8015008226846FDF727FA9F
:104980003EBDFEB504460026434800963630CDE9CC
:1049900001067F208DF80800082231466846FDF7A1
:1049A00016FA217806226846FDF711FA617802228C
:1049B0006846FDF70CFA1E2268466168FDF707FAA3
:1049C000217A02226846FDF702FA1E226846E16853
:1049D000FDF7FDF9217C01226846FDF7F8F9012277
:1049E00000216846FDF7F3F994F8AD009C2802D940
:1049F0009C2084F8AD00002507E060190622417C68
:104A00006846FDF7E4F96D1CEDB294F8AD00A842DC
:104A1000F3D8C0B200EB4000072111EA400005D0F6
:104A2000C0F1080200216846FDF7D1F99DF80000A9
:104A30009DF8011001B9401EC1B28DF800608DF8DB
:104A4000016008226846FDF7C2F9FEBD3EB5044686
:104A5000002511480095B530CDE9010516208DF8E7
:104A60000800082229466846FDF7B1F92178062298
:104A70006846FDF7ACF9617802226846FDF7A7F9B0
:104A80001E2268466168FDF7A2F9022200216846ED
:104A9000FDF79DF902E000003E34002094F8250067
:104AA000012805D002280AD0032822D004283BD0B0
:104AB0001E226846A168FDF78AF9217B0FE01E22BD
:104AC0006846A168FDF783F9217B02226846FDF75D
:104AD0007EF91E2268462169FDF779F9217D0222BF
:104AE0006846FDF774F99DF800009DF80110E9B3E0
:104AF00043E01E226846A168FDF769F9217B022286
:104B00006846FDF764F91E2268462169FDF75FF9E2
:104B1000217D02226846FDF75AF91E226846A169E6
:104B2000FDF755F9217FDAE71E226846A168FDF7F7
:104B30004EF9217B02226846FDF749F91E2268469C
:104B40002169FDF744F9217D02226846FDF73FF90E
:104B50001E226846A169FDF73AF9217F02226846C4
:104B6000FDF735F91E226846216A00E004E0FDF7F2
:104B70002EF994F82410B2E7401EC1B28DF800500F
:104B80008DF8015008226846FDF721F93EBDFEB5BB
:104B900000260446FC480096CDE901067F208DF8EA
:104BA0000800082231466846FDF711F921780622EF
:104BB0006846FDF70CF9617802226846FDF707F9AF
:104BC0001E2268466168FDF702F90222002168464C
:104BD000FDF7FDF894F8A900A12802D9A12084F8D6
:104BE000A900002507E060190622017A6846FDF752
:104BF000EEF86D1CEDB294F8A900A842F3D8C0B24B
:104C000000EB4000072111EA400005D0C0F1080286
:104C100000216846FDF7DBF89DF800009DF80110C3
:104C200001B9401EC1B28DF800608DF80160082204
:104C30006846FDF7CCF8FEBD3EB504460025D248D7
:104C400000957F30CDE9010515208DF80800082278
:104C500029466846FDF7BBF8217806226846FDF72D
:104C6000B6F8617802226846FDF7B1F81E22684660
:104C70006168FDF7ACF8022200216846FDF7A7F84D
:104C8000207F012805D0022810D0032838D004281E
:104C900052D01E226846A168FDF799F8217B0622B2
:104CA0006846FDF794F8E1890C221FE01E22684651
:104CB000A168FDF78CF8217B06226846FDF787F88E
:104CC000E1890C226846FDF782F80222002168463D
:104CD000FDF77DF8217C06226846FDF778F8618AA9
:104CE0000C226846FDF773F8042258E06846FDF789
:104CF0006EF89DF801109DF80000002951D051E098
:104D00001E226846A168FDF762F8217B06226846EC
:104D1000FDF75DF8E1890C226846FDF758F802229C
:104D200000216846FDF753F8062200216846FDF78A
:104D30004EF80C2200211AE01E226846A168FDF7F9
:104D400046F8217B06226846FDF741F8E1890C22EE
:104D50006846FDF73CF8022200216846FDF737F867
:104D6000217C06226846FDF732F8618A0C226846EB
:104D7000FDF72DF8022200216846FDF728F81E22D3
:104D800068466169FDF723F8217E06226846FDF733
:104D90001EF8618B0C226846FDF719F802220021EB
:104DA000A4E7401EC1B28DF800508DF801500822D2
:104DB0006846FDF70CF83EBD3EB504460025724836
:104DC00000959430CDE9010513208DF808000822E4
:104DD00029466846FCF7FBFF217806226846FCF767
:104DE000F6FF617802226846FCF7F1FF1E22684652
:104DF0006168FCF7ECFF022200216846FCF7E7FF40
:104E0000207E012801D0022811D01E226846A16808
:104E1000FCF7DDFFA1890C226846FCF7D8FFE18989
:104E20000A226846FCF7D3FF042200211AE01E2262
:104E30006846A168FCF7CBFFA1890C226846FCF705
:104E4000C6FFE1890A226846FCF7C1FF1E226846B8
:104E50002169FCF7BCFFA18A0C226846FCF7B7FF6A
:104E6000E18A0A226846FCF7B2FF9DF800009DF82F
:104E7000011001B9401EC1B28DF800508DF80150EB
:104E800008226846FCF7A3FF3EBDFEB50446002697
:104E90003D480096A730CDE9010667208DF808004F
:104EA000082231466846FCF792FF217806226846C0
:104EB000FCF78DFF617802226846FCF788FF1E220E
:104EC00068466168FCF783FF022200216846FCF710
:104ED0007EFF12226846A168FCF779FF112268461E
:104EE000E168FCF774FF052200216846FCF76FFFBC
:104EF000E07D60B3217C06226846FCF768FF618A8A
:104F00000A226846FCF763FFA18A0D226846FCF777
:104F10005EFFA17D03226846FCF759FFE17D052273
:104F20006846FCF754FF217E03226846FCF74FFFDA
:104F3000E07D35461D2814D904EB85001822C1698F
:104F40006846FCF744FF6D1CEDB21D2DF4D30BE059
:104F500004EB85001822C1696846FCF738FF6D1C18
:104F6000EDB2E07DA842F3D89DF800009DF8011055
:104F700001B9401EC1B28DF800608DF801600822B1
:104F80006846FCF724FFFEBD093500203EB500252C
:104F90000446FD480095CDE9010516208DF808006E
:104FA000082229466846FCF712FF21780622684647
:104FB000FCF70DFF617802226846FCF708FF1E220D
:104FC00068466168FCF703FF082200216846FCF789
:104FD000FEFE21890A226846FCF7F9FEA17A012229
:104FE0006846FCF7F4FE1C226846E168FCF7EFFE19
:104FF0001B2268462169FCF7EAFEA18A0C2268465A
:10500000FCF7E5FEE18A09226846FCF7E0FE217E16
:1050100006226846FCF7DBFE022200216846FCF708
:10502000D6FE617E01226846FCF7D1FEA17E0122F8
:105030006846FCF7CCFEE17E01226846FCF7C7FE1D
:10504000217F01226846FCF7C2FE617F012268468B
:10505000FCF7BDFEA17F01226846FCF7B8FEE17FA8
:1050600001226846FCF7B3FE94F82010012268463E
:10507000FCF7ADFE94F8200014F8221F00284FF032
:10508000020268460ED0FCF7A2FE61880D22684637
:10509000FCF79DFE217903226846FCF798FE6179B2
:1050A000012219E0FCF793FE617803226846FCF7C1
:1050B0008EFE6078223C68B101280BD0022809D00E
:1050C000042807D0062805D0032803D0052801D0DE
:1050D000072804D1A18C0E226846FCF778FE9DF8C3
:1050E00000009DF8011001B9401EC1B28DF80050BA
:1050F0008DF8015008226846FCF769FE3EBDFEB5FA
:1051000004460026A04800961630CDE90106282066
:105110008DF80800082231466846FCF758FE2178D1
:1051200006226846FCF753FE617802226846FCF7C7
:105130004EFE1E2268466168FCF749FE08220021E7
:105140006846FCF744FE21890A226846FCF73FFEC8
:10515000A17A01226846FCF73AFE1C226846E16803
:10516000FCF735FE1B2268462169FCF730FEA18A58
:105170000C226846FCF72BFEE18A09226846FCF700
:1051800026FE217E06226846FCF721FE042200212D
:105190006846FCF71CFE002560190622417E684621
:1051A000FCF715FE6D1CEDB2142DF5D394F82D10FF
:1051B000082268462E34FCF70AFE21880922684638
:1051C000FCF705FE618809226846FCF700FE21799C
:1051D00006226846FCF7FBFD617906226846FCF76B
:1051E000F6FDA17904226846FCF7F1FDE179012280
:1051F0006846FCF7ECFD217A01226846FCF7E7FDE2
:10520000617A01226846FCF7E2FD0422002168462B
:10521000FCF7DDFD9DF800009DF8011001B9401E6E
:10522000C1B28DF800608DF8016008226846FCF775
:10523000CEFDA8E63EB504460025534800953E3015
:10524000CDE9010515208DF8080008222946684699
:10525000FCF7BDFD217806226846FCF7B8FD6178B1
:1052600002226846FCF7B3FD1E2268466168FCF71F
:10527000AEFD022200216846FCF7A9FD94F820004B
:10528000012807D002281BD003284DD004287DD048
:1052900020223EE021890C226846FCF798FDA17A85
:1052A00004226846FCF793FDE17A03226846FCF786
:1052B0008EFDA1890B226846FCF789FD022228E0B9
:1052C00021890C226846FCF782FDA17A04226846F7
:1052D000FCF77DFDE17A03226846FCF778FDA189A1
:1052E0000B226846FCF773FDE1890C226846FCF747
:1052F0006EFD217C04226846FCF769FD617C032277
:105300006846FCF764FD618A0B226846FCF75FFD86
:10531000042200216846FCF75AFD9DF801109DF813
:10532000000000297DD092E021890C226846FCF71C
:105330004EFDA17A04226846FCF749FDE17A03227A
:105340006846FCF744FDA1890B226846FCF73FFD47
:10535000E1890C226846FCF73AFD217C042268466C
:10536000FCF735FD617C03226846FCF730FD618A5D
:105370000B226846FCF72BFDA18A0C226846FCF73D
:1053800026FDA17D042202E0173600200EE06846CB
:10539000FCF71DFDE17D03226846FCF718FD218B1B
:1053A0000B226846FCF713FD0622B2E721890C2286
:1053B0006846FCF70CFDA17A04226846FCF707FD5D
:1053C000E17A03226846FCF702FDA1890B226846B8
:1053D000FCF7FDFCE1890C226846FCF7F8FC217C17
:1053E00004226846FCF7F3FC617C03226846FCF764
:1053F000EEFC618A0B226846FCF7E9FCA18A0C22CC
:105400006846FCF7E4FCA17D04226846FCF7DFFC5B
:10541000E17D03226846FCF7DAFC218B0B2268460B
:1054200000E013E0FCF7D3FC618B0C226846FCF72C
:10543000CEFC217F04226846FCF7C9FC617F032271
:105440006846FCF7C4FCE18B0B2263E7401EC1B247
:105450008DF800508DF8015008226846FCF7B7FC23
:105460003EBDFEB500260446FE480096CDE9010685
:105470002E208DF80800082231466846FCF7A7FC6C
:10548000217806226846FCF7A2FC61780222684671
:10549000FCF79DFC1E2268466168FCF798FC217AA7
:1054A00005226846FCF793FC002560190622417A24
:1054B0006846FCF78CFC6D1CEDB2142DF5D3617FB2
:1054C000012268462034FCF782FC1C2268462168D1
:1054D000FCF77DFC1B2268466168FCF778FC21899B
:1054E00009226846FCF773FC618909226846FCF7CB
:1054F0006EFC217B06226846FCF769FC617B062274
:105500006846FCF764FCA17B04226846FCF75FFC5C
:10551000E17B06226846FCF75AFC217C01226846A2
:10552000FCF755FC617C08226846FCF750FCA17C26
:1055300001226846FCF74BFCE17C01226846FCF73F
:1055400046FC217D01226846FCF741FC0122002136
:105550006846FCF73CFC94F82300203C0E284FF0F2
:10556000000514D96019062290F835106846FCF73A
:105570002EFC6D1CEDB20E2DF4D30CE0601906224A
:1055800090F835106846FCF722FC6D1CEDB294F8DB
:105590004300A842F2D805EB4500400010F0070098
:1055A00005D0C0F1080200216846FCF710FC9DF808
:1055B00000009DF8011001B9401EC1B28DF80060D5
:1055C0008DF8016008226846FCF701FCDBE43EB57B
:1055D00004460025A34800952E30CDE9010516208C
:1055E0008DF80800082229466846FCF7F0FB14F8FD
:1055F000041B06226846FCF7EAFB14F8031C02228F
:105600006846FCF7E4FB1E2268462168FCF7DFFBD6
:10561000022200216846FCF7DAFBA1880C226846CA
:10562000FCF7D5FBE1880C226846FCF7D0FB217A19
:1056300004226846FCF7CBFB617A01226846FCF73E
:10564000C6FB12226846E168FCF7C1FB11226846DE
:105650002169FCF7BCFB122268466169FCF7B7FBC5
:1056600011226846A169FCF7B2FB217F012268463E
:10567000FCF7ADFB617F01226846FCF7A8FBA17F28
:1056800001226846FCF7A3FBE17F03226846FCF792
:105690009EFB172200216846FCF799FB9DF800004D
:1056A0009DF8011001B9401EC1B28DF800508DF86F
:1056B000015008226846FCF78AFB3EBD3EB5044611
:1056C0000025684800954430CDE9010515208DF886
:1056D0000800082229466846FCF779FB2178062253
:1056E0006846FCF774FB617802226846FCF76FFBA2
:1056F0001E2268466168FCF76AFB022200216846A8
:10570000FCF765FB12226846A168FCF760FB1122DA
:105710006846E168FCF75BFB122268462169FCF7EA
:1057200056FB112268466169FCF751FB217E042279
:105730006846FCF74CFB617E08226846FCF747FB95
:10574000162200216846FCF742FBA17E042268462F
:10575000FCF73DFBE17E04226846FCF738FB217F25
:1057600004226846FCF733FB062200216846FCF75A
:105770002EFB9DF800009DF8011001B9401EC1B23A
:105780008DF800508DF8015008226846FCF71FFB89
:105790003EBDFEB505460026324800965930CDE99B
:1057A000010615208DF80800082231466846FCF7EE
:1057B0000EFB297806226846FCF709FB697802226D
:1057C0006846FCF704FB1E2268466968FCF7FFFA8E
:1057D000297A02226846FCF7FAFA002428190622E0
:1057E000417A6846FCF7F3FA641CE4B2142CF5D352
:1057F0009DF800009DF8011001B9401EC1B28DF85E
:1058000000608DF8016008226846FCF7E0FA10E5B8
:10581000FEB504460026134800966E30CDE9010619
:1058200016208DF80800082231466846FCF7CFFAAA
:10583000217806226846FCF7CAFA61780222684697
:10584000FCF7C5FA1E2268466168FCF7C0FA217AA7
:1058500002226846FCF7BBFA617A08226846FCF728
:10586000B6FA01E06A360020002560190622017BA5
:105870006846FCF7ACFA6D1CEDB2032DF5D3E17B65
:1058800004226846FCF7A3FA142268462169FCF753
:105890009EFA002560190622017D6846FCF797FAFA
:1058A0006D1CEDB2072DF5D334F81C1F0922684694
:1058B000FCF78DFA618809226846FCF788FA21799D
:1058C00006226846FCF783FA617906226846FCF7EF
:1058D0007EFA062200216846FCF779FA9DF800005E
:1058E0009DF8011001B9401EC1B28DF800608DF81D
:1058F000016008226846FCF76AFA9AE4FEB50026C1
:105900000446FE480096CDE9010616208DF80800F1
:10591000082231466846FCF75AFA21780622684682
:10592000FCF755FA617802226846FCF750FA1E220D
:1059300068466168FCF74BFA217A01226846FCF759
:1059400046FA617A01226846FCF741FA207A00B3F0
:105950001E226846E168FCF73AFA607A002862D0B5
:10596000218A0A226846FCF732FAA17C06226846A0
:10597000FCF72DFA94F82100522802D9522084F81D
:105980002100C0B200F11001C70884F822100025E0
:105990006CE0607AC0B1218A0A226846FCF717FAE7
:1059A000A17C06226846FCF712FA94F821007028C0
:1059B00002D9702084F82100C0B200F11001C7089C
:1059C00084F82210002520E094F82200802802D9D3
:1059D000802084F82200C0F3C407002507E0601986
:1059E0000822017C6846FCF7F2F96D1CEDB2BD425D
:1059F000F5D32DE06019017C0CE060190822C17C10
:105A00006846FCF7E4F96D1CEDB2BD42F5D32FE01A
:105A10006019C17C6846FCF7DAF99DF800009DF832
:105A2000011059B32BE094F82200622802D96220B9
:105A300084F82200C0F3C407002507E0601908229B
:105A4000017C6846FCF7C3F96D1CEDB2BD42F5D38D
:105A500094F8220010F00702CCD1DEE7601908228A
:105A6000C17C6846FCF7B3F96D1CEDB2BD42F5D3BD
:105A700094F8210010F00702CAD1CEE7401EC1B24F
:105A80008DF800608DF8016008226846FCF79FF9E8
:105A90009CE5FEB504460026984800961630CDE9F0
:105AA000010686208DF80800082231466846FCF77A
:105AB0008EF9217806226846FCF789F9617802227E
:105AC0006846FCF784F91E2268466168FCF77FF996
:105AD000217A01226846FCF77AF9617A0122684648
